{
  "contractName": "Comment",
  "abi": [
    {
      "constant": true,
      "inputs": [
        {
          "name": "",
          "type": "uint256"
        }
      ],
      "name": "commenters",
      "outputs": [
        {
          "name": "",
          "type": "address"
        }
      ],
      "payable": false,
      "stateMutability": "view",
      "type": "function"
    },
    {
      "constant": false,
      "inputs": [
        {
          "name": "scenicSpotId",
          "type": "uint256"
        }
      ],
      "name": "comment",
      "outputs": [
        {
          "name": "",
          "type": "uint256"
        }
      ],
      "payable": false,
      "stateMutability": "nonpayable",
      "type": "function"
    },
    {
      "constant": true,
      "inputs": [],
      "name": "getCommenters",
      "outputs": [
        {
          "name": "",
          "type": "address[4]"
        }
      ],
      "payable": false,
      "stateMutability": "view",
      "type": "function"
    }
  ],
  "bytecode": "0x608060405234801561001057600080fd5b506102d6806100206000396000f300608060405260043610610056576000357c0100000000000000000000000000000000000000000000000000000000900463ffffffff168062981cc91461005b5780631314180f1461009c578063236189b414610109575b600080fd5b34801561006757600080fd5b506100866004803603810190808035906020019092919050505061015c565b6040518082815260200191505060405180910390f35b3480156100a857600080fd5b506100c7600480360381019080803590602001909291905050506101d1565b604051808273ffffffffffffffffffffffffffffffffffffffff1673ffffffffffffffffffffffffffffffffffffffff16815260200191505060405180910390f35b34801561011557600080fd5b5061011e610206565b6040518082600460200280838360005b8381101561014957808201518184015260208101905061012e565b5050505090500191505060405180910390f35b600080821015801561016f575060038211155b151561017a57600080fd5b3360008360048110151561018a57fe5b0160006101000a81548173ffffffffffffffffffffffffffffffffffffffff021916908373ffffffffffffffffffffffffffffffffffffffff160217905550819050919050565b6000816004811015156101e057fe5b016000915054906101000a900473ffffffffffffffffffffffffffffffffffffffff1681565b61020e610287565b600060048060200260405190810160405280929190826004801561027d576020028201915b8160009054906101000a900473ffffffffffffffffffffffffffffffffffffffff1673ffffffffffffffffffffffffffffffffffffffff1681526020019060010190808311610233575b5050505050905090565b6080604051908101604052806004906020820280388339808201915050905050905600a165627a7a72305820505dd789a28ec1178c20065375c7b402cea155e4ac3040f6bdb32258e0da60b90029",
  "source": "pragma solidity ^0.4.17;\r\n\r\ncontract Comment {\r\n\r\n  address[4] public commenters;  // 保存评论者的地址\r\n\r\n    // 评论景点\r\n  function comment(uint scenicSpotId) public returns (uint) {\r\n    require(scenicSpotId >= 0 && scenicSpotId <= 3);  // 确保id在数组长度内\r\n\r\n    commenters[scenicSpotId] = msg.sender;        // 保存调用者地址 \r\n    return scenicSpotId;\r\n  }\r\n\r\n  // 返回评论者的地址\r\n  function getCommenters() public view returns (address[4]) {\r\n    return commenters;\r\n  }\r\n}",
  "sourcePath": "F:\\Study\\workspace2\\blockchain\\pet-shop-tutorial\\contracts\\Comment.sol",
  "compiler": {
    "name": "solc",
    "version": "0.4.24+commit.e67f0147.Emscripten.clang"
  },
  "schemaVersion": "2.0.1",
  "updatedAt": "2018-12-18T07:14:17.261Z"
}